:040000008A110B282E
:10000800FE00030EF0000A08F1008A117E288A110A
:100018000D28F901FA0183018A116828F701F8010E
:100028007808803AFF0080307F02031D1D280430C5
:100038007702031C20282128222840280130F600B6
:10004800770A28280310F60DFF3E031D2628760898
:100058008312031386007508F3007408F2008A11EE
:10006800A6208A118312031386010130F7070318AB
:10007800F80A0030F80714280330F7000030F800B9
:10008800F81F47284828492867280130F600770ACA
:100098004F280310F60DFF3E031D4D2876088312E6
:1000A800031386007508F3007408F2008A11A6206D
:1000B8008A11831203138601FF30F7070318F80A21
:1000C800FF30F80744280800831603139B01073004
:1000D8009C00860162308F0090018A1194208A1159
:1000E8006430F4000030F5008A1112208A11742857
:1000F8008A110B280B1D812882288D280B110130AD
:10010800F9070318FA0A0030FA07F83083120313C4
:10011800810071088A00700E8300FE0E7E0E0900B1
:100128008312031381018B168B170B178316031386
:1001380081128111011581100114F8308312031303
:1001480081000800F901FA0173087A02031DAE283C
:1001580072087902031CB128B228A82808000030C8
:0E0168008A000408840A8207003464340034DC
:04400E00793FFF3FB8
:00000001FF
